:100000000C942A000C94E7050C9410060C94390605
:100010000C9447000C9447000C9458070C94060766
:100020000C942F070C94DD060C94B4060C948B06EC
:100030000C9462060C9481070C9447000C94AA0758
:100040000C94FB030C9447000C9447000C9447005D
:100050000C94470011241FBECFE5D8E0DEBFCDBF12
:1000600010E0A0E6B0E0ECE2F0E102C005900D92F5
:10007000A43DB107D9F720E0A4EDB0E001C01D9286
:10008000A03FB207E1F70E94F6030C9414080C9409
:1000900000000E9421050E941C036FE670E081E0D1
:1000A0000E94CC0367E670E082E00E94CC0360E02F
:1000B00084E00E943B0387E790E00E945A03089582
:1000C0002FEF85EA9EE0215080409040E1F700C08C
:1000D00000000E94E90360E081E00E943B038AE89F
:1000E00090E00E945A0365E084E00E943B032FEFFA
:1000F00083ED90E3215080409040E1F700C0000084
:100100009091D5008091D4008917C8F48FE990E0D0
:100110000E945A0382E00E94570382E00E94570324
:1001200082E00E9457032FEF83ED90E3215080403F
:100130009040E1F700C000000E94E903089598177D
:10014000C0F489EA90E00E945A0382E00E945703BB
:1001500082E00E94570382E00E9457032FEF83ED55
:1001600090E3215080409040E1F700C000000E94E1
:10017000E90308950E94E9031092D5001092D4007B
:1001800081E0809363008093620080936600809397
:1001900065008093640060E084E00E943B0387E791
:1001A00090E00E945A0384E0809361008093600095
:1001B0000895CF938FE10E94310581110DC08FED1D
:1001C0009EE20197F1F700C000008FE10E94310527
:1001D0008823D9F3C1E001C0C4E08EE10E9431055B
:1001E00081110CC08FED9EE20197F1F700C0000075
:1001F0008EE10E9431058823D9F3C0E08C2FCF9186
:100200000895CF938DE10E94310581110DC08FEDCE
:100210009EE20197F1F700C000008DE10E943105D8
:100220008823D9F3C3E001C0C4E08BE10E9431050B
:1002300081110CC08FED9EE20197F1F700C0000024
:100240008BE10E9431058823D9F3C2E08C2FCF9136
:1002500008958091D500853021F08091D4008530BB
:1002600021F40E9460000E94BA0063E18091640062
:100270000E943B0381E00E94570360E0809165008B
:100280000E943B0381E00E9457030E94D9008093A3
:1002900061000E94010180936000909166009923A3
:1002A00009F477C090916100913059F49091620007
:1002B0009F5F90936200943081F493E0909362008A
:1002C0000CC091110AC0909162009150909362000D
:1002D000911103C091E090936200833099F463E13F
:1002E000809164000E943B0380E20E94570380914A
:1002F00064008F5F809364008430C1F483E0809356
:10030000640014C0823091F463E1809164000E9423
:100310003B0380E20E9457038091640081508093E8
:100320006400811103C081E08093640080916300C8
:100330008F5F80936300823109F0A2C01092660043
:100340009091620080916400981709F499C061E06F
:1003500086E10E9464052FEF85EA9EE021508040EF
:100360009040E1F700C0000060E086E10E94640573
:100370008091D5008F5F8093D50063E084E00E9478
:100380003B036091D50070E080E090E00E946D0337
:1003900077C0833059F4809162008F5F8093620050
:1003A000843081F483E0809362000CC0823051F489
:1003B00080916200815080936200811103C081E0CE
:1003C00080936200809161008130A1F4809165008A
:1003D0008F5F80936500843019F483E0809365001B
:1003E0008091650060E081500E943B0380E20E94A2
:1003F000570315C0811113C080916500815080930F
:100400006500811103C081E08093650080916500E3
:1004100060E08F5F0E943B0380E20E94570380915F
:100420006300815080936300813051F590916200A8
:1004300080916500981709F161E086E10E946405EA
:100440002FEF85EA9EE0215080409040E1F700C008
:10045000000060E086E10E9464058091D4008F5F17
:100460008093D40061E184E00E943B036091D4005A
:1004700070E080E090E00E946D0381E08093660070
:1004800060916300809162000E943B0380E30E94C0
:1004900057032FEF80E792E0215080409040E1F732
:1004A00000C0000060916300809162000E943B03E5
:1004B00080E20E9457030895CF93C82F60E083E045
:1004C0000E9464056C2F661F6627661F8CE00E94E1
:1004D0006405C6FB662760F98AE00E946405C5FBD7
:1004E000662760F989E00E946405C4FB662760F90D
:1004F00088E00E94640561E082E00E9464058FE963
:100500009FE00197F1F700C0000060E082E00E94E8
:1005100064058FE99FE00197F1F700C00000C3FB7D
:10052000662760F98CE00E946405C2FB662760F9CB
:100530008AE00E946405C1FB662760F989E00E9499
:1005400064056C2F617088E00E94640561E082E0C0
:100550000E9464058FE99FE00197F1F700C0000059
:1005600060E082E00E9464058FE99FE00197F1F767
:1005700000C00000CF910895CF93C82F61E083E0C1
:100580000E9464056C2F661F6627661F8CE00E9420
:100590006405C6FB662760F98AE00E946405C5FB16
:1005A000662760F989E00E946405C4FB662760F94C
:1005B00088E00E94640561E082E00E9464058FE9A2
:1005C0009FE00197F1F700C0000060E082E00E9428
:1005D00064058FE99FE00197F1F700C00000C3FBBD
:1005E000662760F98CE00E946405C2FB662760F90B
:1005F0008AE00E946405C1FB662760F989E00E94D9
:1006000064056C2F617088E00E94640561E082E0FF
:100610000E9464058FE99FE00197F1F700C0000098
:1006200060E082E00E9464058FE99FE00197F1F7A6
:1006300000C00000CF9108952FE785EB91E0215095
:1006400080409040E1F700C0000082E00E945C0220
:1006500088E20E945C028CE00E945C0281E00E94C1
:100660005C028FE99FE00197F1F700C0000086E08F
:100670000E945C020895813029F480E8860F0E9470
:100680005C020895823029F480EC860F0E945C029F
:100690000895833029F484E9860F0E945C0208954E
:1006A000843021F484ED860F0E945C0208950E943C
:1006B000BC0208950F931F93CF938C01C0E003C039
:1006C0000E94BC02CF5FF801EC0FF11D8081811107
:1006D000F7CFCF911F910F910895CF92DF92EF92B4
:1006E000FF921F93CF93DF93CDB7DEB72A970FB654
:1006F000F894DEBF0FBECDBF6B017C0161157105A3
:100700008105910521F480E30E9457030DC09923D0
:100710005CF48DE20E945703F094E094D094C0946E
:10072000C11CD11CE11CF11C10E015C0C701B601B1
:100730002AE030E040E050E00E94F507E1E0F0E020
:10074000EC0FFD1FE10FF11D605D6083C22ED32E03
:10075000E42EF52E1F5F1C141D041E041F0434F329
:1007600011500AC0E1E0F0E0EC0FFD1FE10FF11DB8
:1007700080810E94570311501F3FA1F72A960FB6A0
:10078000F894DEBF0FBECDBFDF91CF911F91FF90D8
:10079000EF90DF90CF9008950F931F93CF938B012D
:1007A00090E00896880F880F880F0E945C02C0E0D6
:1007B00007C0F801EC0FF11D80810E94BC02CF5FE1
:1007C000C830B8F380E80E945C02CF911F910F916E
:1007D000089581E00E945C028FE39FE10197F1F7A9
:1007E00000C0000080E80E945C0208950E94490059
:1007F0000E942901FDCF1F920F920FB60F92112474
:100800002F933F934F935F936F937F938F939F9318
:10081000AF93BF93EF93FF93E091D600F091D70091
:10082000309709F00995FF91EF91BF91AF919F919A
:100830008F917F916F915F914F913F912F910F9089
:100840000FBE0F901F901895982F977086958695DC
:100850008695613009F455C020F0623009F4A1C0DA
:1008600008958130C1F028F0823039F18330B9F138
:1008700008954AB321E030E0B90102C0660F771F46
:100880009A95E2F7CB01942F982B9ABB9BB3809556
:1008900089238BBB089547B321E030E0B90102C042
:1008A000660F771F9A95E2F7CB01942F982B97BB91
:1008B00098B38095892388BB089544B321E030E044
:1008C000B90102C0660F771F9A95E2F7CB01942F0A
:1008D000982B94BB95B38095892385BB089541B32C
:1008E00021E030E0B90102C0660F771F9A95E2F768
:1008F000CB01942F982B91BB92B38095892382BB17
:1009000008958130C1F028F0823039F18330B9F197
:1009100008954AB321E030E0B90102C0660F771FA5
:100920009A95E2F7CB018095942F98239ABB9BB3BD
:1009300089238BBB089547B321E030E0B90102C0A1
:10094000660F771F9A95E2F7CB018095942F982335
:1009500097BB98B3892388BB089544B321E030E066
:10096000B90102C0660F771F9A95E2F7CB01809517
:10097000942F982394BB95B3892385BB089541B3E5
:1009800021E030E0B90102C0660F771F9A95E2F7C7
:10099000CB018095942F982391BB92B3892382BB7E
:1009A00008958130C1F028F0823039F18330B9F1F7
:1009B00008954AB321E030E0B90102C0660F771F05
:1009C0009A95E2F7CB01962F909594239ABB9BB30F
:1009D000892B8BBB089547B321E030E0B90102C0F9
:1009E000660F771F9A95E2F7CB01962F9095942387
:1009F00097BB98B3892B88BB089544B321E030E0BE
:100A0000B90102C0660F771F9A95E2F7CB01962FC6
:100A10009095942394BB95B3892B85BB089541B3DE
:100A200021E030E0B90102C0660F771F9A95E2F726
:100A3000CB01962F9095942391BB92B3892B82BBC7
:100A40000895CF93C0E009C0EC2FF0E0EC54FF4FC5
:100A500060818C2F0E942404CF5FC032A8F3CF9115
:100A60000895282F2770869586958695813079F090
:100A700028F08230A9F08330E1F024C089B390E0FF
:100A800002C0959587952A95E2F78170089586B3FF
:100A900090E002C0959587952A95E2F781700895B8
:100AA00083B390E002C0959587952A95E2F781700F
:100AB000089580B390E002C0959587952A95E2F756
:100AC0008170089580E00895982F97708695869597
:100AD00086956130E1F5813099F028F08230E9F0B7
:100AE000833041F108954BB321E030E0B90102C0F9
:100AF000660F771F9A95E2F7CB01842B8BBB089585
:100B000048B321E030E0B90102C0660F771F9A9523
:100B1000E2F7CB01842B88BB089545B321E030E098
:100B2000B90102C0660F771F9A95E2F7CB01842BBB
:100B300085BB089542B321E030E0B90102C0660FE1
:100B4000771F9A95E2F7CB01842B82BB0895813001
:100B5000A1F028F08230F9F0833059F108954BB3B9
:100B600021E030E0B90102C0660F771F9A95E2F7E5
:100B7000CB01809584238BBB089548B321E030E0FE
:100B8000B90102C0660F771F9A95E2F7CB018095F5
:100B9000842388BB089545B321E030E0B90102C049
:100BA000660F771F9A95E2F7CB018095842385BB6A
:100BB000089542B321E030E0B90102C0660F771F0B
:100BC0009A95E2F7CB018095842382BB08951F920A
:100BD0000F920FB60F9211242F933F934F935F9371
:100BE0006F937F938F939F93AF93BF93EF93FF93F5
:100BF000E091DC00F091DD00309709F00995FF915C
:100C0000EF91BF91AF919F918F917F916F915F9184
:100C10004F913F912F910F900FBE0F901F901895FD
:100C20001F920F920FB60F9211242F933F934F9361
:100C30005F936F937F938F939F93AF93BF93EF9344
:100C4000FF93E091DA00F091DB00309709F009950D
:100C5000FF91EF91BF91AF919F918F917F916F9194
:100C60005F914F913F912F910F900FBE0F901F906A
:100C700018951F920F920FB60F9211242F933F9346
:100C80004F935F936F937F938F939F93AF93BF9394
:100C9000EF93FF93E091D800F091D900309709F0DD
:100CA0000995FF91EF91BF91AF919F918F917F91A6
:100CB0006F915F914F913F912F910F900FBE0F90C9
:100CC0001F9018951F920F920FB60F9211242F9319
:100CD0003F934F935F936F937F938F939F93AF93C4
:100CE000BF93EF93FF93E091DE00F091DF00309728
:100CF00009F00995FF91EF91BF91AF919F918F916D
:100D00007F916F915F914F913F912F910F900FBE07
:100D10000F901F9018951F920F920FB60F921124EB
:100D20002F933F934F935F936F937F938F939F93F3
:100D3000AF93BF93EF93FF93E091E200F091E30054
:100D4000309709F00995FF91EF91BF91AF919F9175
:100D50008F917F916F915F914F913F912F910F9064
:100D60000FBE0F901F9018951F920F920FB60F9203
:100D700011242F933F934F935F936F937F938F93A0
:100D80009F93AF93BF93EF93FF93E091E000F091B7
:100D9000E100309709F00995FF91EF91BF91AF9174
:100DA0009F918F917F916F915F914F913F912F9183
:100DB0000F900FBE0F901F9018951F920F920FB6B5
:100DC0000F9211242F933F934F935F936F937F93D1
:100DD0008F939F93AF93BF93EF93FF93E091EA00BC
:100DE000F091EB00309709F00995FF91EF91BF91D9
:100DF000AF919F918F917F916F915F914F913F91B3
:100E00002F910F900FBE0F901F9018951F920F9269
:100E10000FB60F9211242F933F934F935F936F93CD
:100E20007F938F939F93AF93BF93EF93FF93E09143
:100E3000E800F091E900309709F00995FF91EF91F2
:100E4000BF91AF919F918F917F916F915F914F91E2
:100E50003F912F910F900FBE0F901F9018951F92EA
:100E60000F920FB60F9211242F933F934F935F93DE
:100E70006F937F938F939F93AF93BF93EF93FF9362
:100E8000E091E600F091E700309709F00995FF91B5
:100E9000EF91BF91AF919F918F917F916F915F91F2
:100EA0004F913F912F910F900FBE0F901F9018956B
:100EB0001F920F920FB60F9211242F933F934F93CF
:100EC0005F936F937F938F939F93AF93BF93EF93B2
:100ED000FF93E091E400F091E500309709F0099567
:100EE000FF91EF91BF91AF919F918F917F916F9102
:100EF0005F914F913F912F910F900FBE0F901F90D8
:100F000018951F920F920FB60F9211242F933F93B3
:100F10004F935F936F937F938F939F93AF93BF9301
:100F2000EF93FF93E091EE00F091EF00309709F01E
:100F30000995FF91EF91BF91AF919F918F917F9113
:100F40006F915F914F913F912F910F900FBE0F9036
:100F50001F9018951F920F920FB60F9211242F9386
:100F60003F934F935F936F937F938F939F93AF9331
:100F7000BF93EF93FF93E091EC00F091ED00309779
:100F800009F00995FF91EF91BF91AF919F918F91DA
:100F90007F916F915F914F913F912F910F900FBE75
:100FA0000F901F901895A1E21A2EAA1BBB1BFD01E2
:100FB0000DC0AA1FBB1FEE1FFF1FA217B307E40738
:100FC000F50720F0A21BB30BE40BF50B661F771F90
:100FD000881F991F1A9469F7609570958095909570
:100FE0009B01AC01BD01CF010895052E97FB1EF4B6
:100FF00000940E940C0857FD07D00E94D30707FCFD
:1010000003D04EF40C940C085095409530952195E2
:101010003F4F4F4F5F4F0895909580957095619524
:0C1020007F4F8F4F9F4F0895F894FFCF33
:10102C000404010101010100001B1F1F0E04000438
:10103C000A040E15040A0A70313A302020202020B0
:10104C00202020202070323A3000546865207769C7
:10105C006E6E6572206973202E2E2E2E2E2E004859
:10106C00616D6F6B736861200037617A616C326FF0
:10107C006F6D200001010000000000010000000065
:10108C00000000000202000000000000000000024E
:04109C00000202024A
:00000001FF
